:1000000071C000008EC000008CC000008AC00000DB
:1000100088C0000086C0000084C0000082C00000CC
:1000200080C000007EC000007CC000007AC00000DC
:1000300078C0000076C0000074C0000072C00000EC
:1000400070C000006EC000006CC000006AC00000FC
:1000500009C3000066C0000064C0000062C0000068
:1000600060C000005EC000005CC000005AC000001C
:1000700058C000008FC3000054C0000052C00000F0
:1000800050C000004EC000004CC000004AC000003C
:1000900048C0000046C0000044C0000042C000004C
:1000A00040C000003EC000003CC000003AC000005C
:1000B00038C0000036C0000034C0000032C000006C
:1000C00030C000002EC000002CC000002AC000007C
:1000D00028C0000026C0000024C0000022C000008C
:1000E00020C0000011241FBECFEFD1E2DEBFCDBF84
:1000F00000E00CBF12E0A0E0B2E0E8E4FDE000E0C8
:100100000BBF02C007900D92AE30B107D9F722E0C5
:10011000AEE0B2E001C01D92A232B207E1F782D296
:1001200011C66ECFE2E0F1E090819F70282F207F12
:10013000922B908390819E7F908390819460908396
:1001400035E03A95F1F7000090819B7F9083AFE80E
:10015000B1E01197F1F700C000002081B0E18B9F62
:10016000C0011124922F9F70892B8083808184602D
:10017000808335E03A95F1F7000080818B7F8083A2
:100180008FE891E00197F1F700C000000895E2E0E8
:10019000F1E090819F70282F207F922B9083908197
:1001A0009160908390819460908335E03A95F1F767
:1001B000000090819B7F9083208130E1839FC0016C
:1001C0001124922F9F70892B80838081846080838B
:1001D00085E08A95F1F7000080818B7F80838FE82E
:1001E00091E00197F1F700C0000008958FEF809330
:1001F0000101E2E0F1E080818B7F80832FEF80E7D7
:1002000092E0215080409040E1F700C0000083E37D
:1002100089DF82E387DF88E285DF8CE083DF81E0AE
:1002200081DF8FE39FE10197F1F700C0000008959F
:10023000CF93DF931F921F92CDB7DEB790E89983DB
:1002400090EC9A83E1E0F0E0EC0FFD1FE60FF11D6A
:100250009081890F67DF0F900F90DF91CF91089504
:10026000CF93DF93FC0102C092DFFE01EF012196E4
:1002700080818111F9CFDF91CF9108954F925F92E4
:100280006F927F928F929F92AF92BF92CF92DF92A6
:10029000EF92FF920F931F93CF93DF9300D01F92A3
:1002A0001F92CDB7DEB76B017C01FE01319685E070
:1002B000DF011D928A95E9F720E030E048EC52E436
:1002C000C701B6011DD384D3062FB4E66B9FB001DE
:1002D0001124072E000C880B990BA8D39B01AC01AD
:1002E000C701B601A4D24B015C0120E030E040E23E
:1002F00051E406D36DD3162F862F90E0BC01660F14
:10030000771F880F991F880F991F880F991F680FF3
:10031000791F072E000C880B990B88D39B01AC0129
:10032000C501B40184D22B013C0152D3B62E70E03A
:1003300080E090E07BD39B01AC01C301B20177D296
:1003400020E030E040E251E421D442D3005D098353
:10035000105D1A8380E38B0D8B838EE28C83605D4E
:100360006D8380E001C08F5F082F10E0E1E0F0E0D6
:10037000EC0FFD1FE00FF11F90819111F4CF20E0F1
:1003800030E040E85FE3C701B601B6D2882324F429
:1003900080E289838A8318C020E030E040E251E4A3
:1003A000C701B601A9D2882324F480E289838A8315
:1003B0000BC020E030E048EC52E4C701B6019CD20B
:1003C000882314F480E28983E12CF12C0FC0E1E052
:1003D000F0E0EC0FFD1FEE0DFF1D808192ED980FF8
:1003E0009C3008F4D4DE8FEFE81AF80AE016F10624
:1003F00074F30F900F900F900F900F90DF91CF91AB
:100400001F910F91FF90EF90DF90CF90BF90AF9032
:100410009F908F907F906F905F904F9008959C0178
:10042000A1E3B1E08C9188608C938C9180618C9376
:10043000E2E3F1E08081808380818083808180831A
:100440008081866080838C9180688C93E0E3F1E00A
:1004500080818083032E000C440B550B60E874E808
:100460008EE190E04DD42150310930933501209335
:10047000340108959091300195FFFCCF80933601AF
:1004800008954F925F926F927F928F929F92AF9258
:10049000BF92CF92DF92EF92FF920F931F93CF9371
:1004A000DF9300D01F921F92CDB7DEB76B017C01A6
:1004B000FE01319685E0DF011D928A95E9F720E083
:1004C00030E048EC52E4C701B6011AD281D2062FBF
:1004D000B4E66B9FB0011124072E000C880B990B1A
:1004E000A5D29B01AC01C701B601A1D14B015C01B2
:1004F00020E030E040E251E403D26AD2162F862F8A
:1005000090E0BC01660F771F880F991F880F991F15
:10051000880F991F680F791F072E000C880B990B05
:1005200085D29B01AC01C501B40181D12B013C01F5
:100530004FD2B62E70E080E090E078D29B01AC0103
:10054000C301B20174D120E030E040E251E41ED397
:100550003FD2005D0983105D1A8380E38B0D8B838E
:100560008EE28C83605D6D8380E001C08F5F082F19
:1005700010E0E1E0F0E0EC0FFD1FE00FF11F9081D3
:100580009111F4CF20E030E040E85FE3C701B6010D
:10059000B3D1882324F480E289838A8318C020E0C1
:1005A00030E040E251E4C701B601A6D1882324F42B
:1005B00080E289838A830BC020E030E048EC52E47B
:1005C000C701B60199D1882314F480E28983E12C14
:1005D000F12C0FC0E1E0F0E0EC0FFD1FEE0DFF1D70
:1005E000808192ED980F9C3008F444DF8FEFE81A79
:1005F000F80AE016F10674F30F900F900F900F9029
:100600000F90DF91CF911F910F91FF90EF90DF90AE
:10061000CF90BF90AF909F908F907F906F905F90A2
:100620004F9008958FEF80930101E0DD80E09BE41F
:10063000F6DE80E680937C00EAE7F0E08FE88083D6
:1006400080818064808304E00093810008E9009346
:10065000850000E40093840001E000936F0078942B
:100660000000FECF1F920F920FB60F9211240BB60F
:100670000F922F933F934F935F936F937F938F933B
:100680009F93AF93BF93EF93FF9308E90093850087
:1006900000E40093840020E030E040E85FE36091F4
:1006A0000E0270910F028091100290911102C0D041
:1006B00060930E0270930F028093100290931102C8
:1006C00020E030E040E751E417D181112EC020E056
:1006D00030E040E751E460911E0270911F0280916A
:1006E0002002909121020CD16093160270931702A0
:1006F0008093180290931902B0D260931202709303
:100700001302809314029093150210920E0210921D
:100710000F02109210021092110210921E021092FB
:100720001F021092200210922102EAE7F0E080817D
:100730008064808360911202709113028091140290
:10074000909115029EDE80E295DE60E080E070DD33
:1007500080E092E085DD61E080E06ADD6091120278
:1007600070911302809114029091150287DDFF9120
:10077000EF91BF91AF919F918F917F916F915F9119
:100780004F913F912F910F900BBE0F900FBE0F9086
:100790001F9018951F920F920FB60F9211240BB64F
:1007A0000F922F933F934F935F936F937F938F930A
:1007B0009F93AF93BF93EF93FF936091790070E0A5
:1007C00080E090E033D12AE037ED43EA5CE3DED10C
:1007D00060931A0270931B0280931C0290931D0277
:1007E0009B01AC01D3D120911E0230911F02409198
:1007F0002002509121021CD060931E0270931F02B0
:100800008093200290932102FF91EF91BF91AF91CD
:100810009F918F917F916F915F914F913F912F9118
:100820000F900BBE0F900FBE0F901F901895505851
:10083000BB27AA270ED070C161D130F066D120F05D
:1008400031F49F3F11F41EF456C10EF4E095E7FB1E
:100850004CC1E92F72D180F3BA176207730784077E
:10086000950718F071F49EF58AC10EF4E0950B2EF1
:10087000BA2FA02D0B01B90190010C01CA01A001F2
:100880001124FF27591B99F0593F50F4503E68F14D
:100890001A16F040A22F232F342F4427585FF3CF8E
:1008A000469537952795A795F0405395C9F77EF45F
:1008B0001F16BA0B620B730B840BBAF09150A1F0A8
:1008C000FF0FBB1F661F771F881FC2F70EC0BA0F2E
:1008D000621F731F841F48F4879577956795B795B6
:1008E000F7959E3F08F0B3CF9395880F08F09927AE
:1008F000EE0F979587950895D4D008F481E0089578
:100900000CD00AC102D140F0F9D030F021F45F3FA1
:1009100019F0EBC0511134C1EEC00FD198F39923F7
:10092000C9F35523B1F3951B550BBB27AA276217B3
:100930007307840738F09F5F5F4F220F331F441FF8
:10094000AA1FA9F333D00E2E3AF0E0E830D0915030
:100950005040E695001CCAF729D0FE2F27D0660F1D
:10096000771F881FBB1F261737074807AB07B0E85C
:1009700009F0BB0B802DBF01FF2793585F4F2AF072
:100980009E3F510568F0B1C0FBC05F3FECF3983E5D
:10099000DCF3869577956795B795F7959F5FC9F7CF
:1009A000880F911D9695879597F90895E1E0660F58
:1009B000771F881FBB1F621773078407BA0720F0D1
:1009C000621B730B840BBA0BEE1F88F7E09508953A
:1009D000BCD088F09F5790F0B92F9927B751A0F05D
:1009E000D1F0660F771F881F991F1AF0BA95C9F7C3
:1009F00012C0B13081F0C3D0B1E00895C0C0672FFC
:100A0000782F8827B85F39F0B93FCCF38695779572
:100A10006795B395D9F73EF490958095709561955B
:100A20007F4F8F4F9F4F0895E89409C097FB3EF486
:100A300090958095709561957F4F8F4F9F4F99232B
:100A4000A9F0F92F96E9BB279395F69587957795A9
:100A50006795B795F111F8CFFAF4BB0F11F460FF69
:100A60001BC06F5F7F4F8F4F9F4F16C0882311F0C1
:100A700096E911C0772321F09EE8872F762F05C0D5
:100A8000662371F096E8862F70E060E02AF09A9570
:100A9000660F771F881FDAF7880F9695879597F965
:100AA0000895990F0008550FAA0BE0E8FEEF1616FF
:100AB0001706E807F907C0F012161306E407F50752
:100AC00098F0621B730B840B950B39F40A2661F0C6
:100AD000232B242B252B21F408950A2609F4A14069
:100AE000A6958FEF811D811D089597F99F6780E876
:100AF00070E060E008959FEF80EC089500240A9470
:100B00001616170618060906089500240A941216E8
:100B10001306140605060895092E0394000C11F41B
:100B2000882352F0BB0F40F4BF2B11F460FF04C0C8
:100B30006F5F7F4F8F4F9F4F089557FD9058440F21
:100B4000551F59F05F3F71F04795880F97FB991F2C
:100B500061F09F3F79F087950895121613061406E9
:100B6000551FF2CF4695F1DF08C016161706180676
:100B7000991FF1CF86957105610508940895E89451
:100B8000BB2766277727CB0197F908950BD0C4CFF1
:100B9000B5DF28F0BADF18F0952309F0A6CFABCF68
:100BA0001124EECFCADFA0F3959FD1F3950F50E04B
:100BB000551F629FF001729FBB27F00DB11D639F0F
:100BC000AA27F00DB11DAA1F649F6627B00DA11DB5
:100BD000661F829F2227B00DA11D621F739FB00D5B
:100BE000A11D621F839FA00D611D221F749F3327CB
:100BF000A00D611D231F849F600D211D822F762F64
:100C00006A2F11249F5750408AF0E1F088234AF060
:100C1000EE0FFF1FBB1F661F771F881F91505040AC
:100C2000A9F79E3F510570F060CFAACF5F3FECF36C
:100C3000983EDCF3869577956795B795F795E79598
:100C40009F5FC1F7FE2B880F911D9695879597F9A9
:100C5000089511F40EF44FCF3EC077DFD0F39923FF
:100C6000D9F3CEF39F57550B87FF43D00024A0E65E
:100C700040EA900180585695979528F4805C660F5D
:100C8000771F881F20F026173707480730F4621BAC
:100C9000730B840B202931294A2BA69517940794AE
:100CA000202531254A2758F7660F771F881F20F027
:100CB00026173707480730F4620B730B840B200D9F
:100CC000311D411DA09581F7B901842F9158880FDE
:100CD0009695879508959F3F31F0915020F4879520
:100CE00077956795B795880F911D9695879597F994
:100CF000089591505040660F771F881FD2F70895CE
:100D0000A1E21A2EAA1BBB1BFD010DC0AA1FBB1F0F
:100D1000EE1FFF1FA217B307E407F50720F0A21B81
:100D2000B30BE40BF50B661F771F881F991F1A94EE
:100D300069F760957095809590959B01AC01BD0118
:080D4000CF010895F894FFCFE4
:0E0D4800564F4C54414A4520524D533A00003C
:00000001FF
